:100000000CC027C026C025C024C023C022C021C0E8
:1000100020C01FC01EC01DC01CC011241FBECFE5C4
:10002000D2E0DEBFCDBF11E0A0E6B0E0E0E4F7E053
:1000300003C0C89531960D92A834B107D1F712E0EC
:10004000A8E4B1E001C01D92A233B107E1F722D2CA
:1000500075C3D6CF1BB888E18AB98BE089B90895FA
:100060005F9BFECF8CB108955D9BFECF8CB9089548
:10007000EF92FF92CF93DF93E82ECE2DDF2DEC2E63
:10008000FD2EF92ECE2DDF2D01C0EEDF89918823C4
:10009000E1F7DF91CF91FF90EF9008955D9BFECF48
:1000A0008CB908950F931F93DF93CF930F92CDB721
:1000B000DEB760E177E219D364E670E016D3082F6B
:1000C000862F1AE0612F05D3805D9983CDDF99815A
:1000D000892F805DC9DF802F612FFBD2805D9983DE
:1000E000C3DF9981892F805DBFDF0F90CF91DF91B2
:1000F0001F910F910895CF93DF93C82FD92F80E6DA
:1001000090E0B6DFC230D105C9F0C330D10530F47C
:10011000209771F0C130D105E9F40DC0C430D1058C
:1001200099F0C430D10568F0C530D10599F40FC0FD
:1001300087E690E00EC08BE690E00BC08FE690E083
:1001400008C082E790E005C086E790E002C08AE739
:1001500090E08EDF8EE790E08BDF8DE085DFDF9132
:10016000CF910895FF920F931F93CF93DF93E82FC2
:10017000F92FF62EC42FD52F888199812FEF8F3F2D
:10018000920741F481E090E0A02FB12F8D939C93D2
:1001900019821882BF2DBD3029F08881998186325D
:1001A0009105E1F48081918167E270E080D228813D
:1001B0003981280F391F285B3E4F83E2A22FB32FCE
:1001C0008C93A02FB12F1D921C928FEF9FEF9983DC
:1001D000888380819181019691838083A02FB12FA4
:1001E0008D919C9111978130910509F0B7C02881BC
:1001F0003981263231050CF0B1C0BF2DB83009F479
:10020000B0C020FD8CC0B73609F450C0B83680F4B9
:10021000B436B1F1B53638F4B03209F473C0B13642
:1002200009F07DC017C08F2D863609F078C033C025
:10023000AF2DAA3609F450C0AB3620F4A83609F029
:100240006EC03FC0BF2DBB3609F451C0B33709F0B3
:1002500066C00BC08081918167E270E028D2280FD0
:10026000391F285B3E4F80E357C08081918167E250
:1002700070E01DD2280F391F285B3E4F81E34CC030
:100280008081918167E270E012D2280F391F285BCC
:100290003E4F82E341C08081918167E270E007D2E6
:1002A000280F391F285B3E4F83E336C08081918140
:1002B00067E270E0FCD1280F391F285B3E4F84E3D2
:1002C0002BC08081918167E270E0F1D1280F391F46
:1002D000285B3E4F85E320C08081918167E270E01A
:1002E000E6D1280F391F285B3E4F86E315C0808179
:1002F000918167E270E0DBD1280F391F285B3E4F08
:1003000087E30AC08081918167E270E0D0D1280F35
:10031000391F285B3E4F88E3A22FB32F8C9328818F
:100320003981822F932F62E070E0F5D18130910501
:1003300089F48F2D8153843068F48081918167E244
:1003400070E0B5D1280F391F285B3E4FFA94E22F99
:10035000F32FF08288819981019606C0FF2DF83035
:1003600029F488819981019799838883DF91CF91BE
:100370001F910F91FF90089567E270E098D1E82FE8
:10038000F92FE85BFE4F80E090E02191233279F075
:1003900080FD04C0322F3053393060F480FF03C039
:1003A0002053243038F401968632910571F720E00D
:1003B00030E002C021E030E0822F932F0895E8E280
:1003C000F1E090E480FD0EC0208131813BBD2ABD6B
:1003D0009FBD2FE73AE146E0215030404040E1F731
:1003E00000C00000329631E0E833F30711F0869543
:1003F000E9CF1FBC08950BC02FE33DE043E021503F
:1004000030404040E1F700C000008D579040181682
:10041000190694F31FBC0895E82FF92FEE0FFF1F64
:10042000E85DFE4F808191819BBD8ABD80E48FBDD8
:100430000895CF93DF932FEF34E34CE02150304009
:100440004040E1F700C0000067E270E030D1C82F03
:10045000D92FC85BDE4F18C0883319F090E0C097E1
:10046000DBDFE981F0E0EE0FFF1FE652FF4F8081F6
:100470009181C1DFE981F0E0EE0FFF1FE652FF4FEF
:1004800080819181B8DF22968881833229F7DF91BC
:10049000CF9108956F927F928F929F92AF92BF9269
:1004A000CF92DF92EF92FF920F931F93DF93CF9340
:1004B000CDB7DEB72D970FB6F894DEBF0FBECDBF18
:1004C0008FEF85BB14BA8BBB1ABA12BA80E281BB1C
:1004D00088EF88BB87E087BB1FBC8BE08EBD83E2C3
:1004E0008093480180936F01809396018093BD01B2
:1004F0008093E40180930B02ADDD8FEF94E3ACE0D9
:1005000081509040A040E1F700C000001A8219829B
:100510008FEF9FEF9C838B8387E890E0A9DD8DE0D0
:10052000A3DD8EEA90E0A4DD8DE09EDD8EEE90E00E
:100530009FDD8DE099DD89819A81DDDD54988BB155
:100540001E821D82AC2FBD2F1796E2E4F1E086E0FB
:1005500001900D928150E1F753E0852E912C8C0E85
:100560009D1E45E0C42ED12CCC0EDD1EAC2EBD2E22
:100570000894A11CB11C37E0632E712C6C0E7D1EFB
:1005800083B3CF992FC08D8765DD8D8518DF5F9B85
:1005900029C066DDE82E2BB18A2D9B2D6E2D482DAE
:1005A000592D0C2D1D2DDEDD9E2D9D30D9F4098198
:1005B0001A81E02EF12E0894E108F1088E2D9F2D6E
:1005C000DBDE8130910559F4FA82E9828AE191E01B
:1005D0004FDD8DE090E04CDD89819A8102C0802F53
:1005E000912F89DDCF9B1BC05498E62CF72C00E09F
:1005F00010E083B390E0AE2DBF2D0D9002C0959515
:1006000087950A94E2F7EA2EFB2E80FD03C0802F27
:10061000912F0FDF0F5F1F4F0630110551F7B39970
:10062000AFCF88B3836088BBE8EDFBE03197F1F78B
:1006300000C00000C1988DE193E00197F1F700C080
:100640000000C098A3EFB1E01197F1F700C00000DF
:10065000C19AE8EDFBE03197F1F700C00000C198C6
:1006600088ED9BE00197F1F700C000008FE79AE169
:10067000A6E081509040A040E1F700C00000C29A7F
:10068000A6EFB9E01197F1F700C00000C298E6EFBD
:10069000F9E03197F1F700C000008FE79AE1A6E09A
:1006A00081509040A040E1F700C0000069CF55277D
:1006B000002480FF02C0060E571F660F771F6115CA
:1006C000710521F096958795009799F7952F802DC4
:1006D0000895991B79E004C0991F961708F0961B9E
:1006E000881F7A95C9F780950895AA1BBB1B51E115
:1006F00007C0AA1FBB1FA617B70710F0A61BB70B92
:10070000881F991F5A95A9F780959095682F792F82
:100710008A2F9B2F089597FB092E07260AD077FD75
:1007200004D0E3DF06D000201AF4709561957F4F66
:100730000895F6F7909581959F4F0895F894FFCF0F
:10074000496E707574200031737400326E6400332A
:100750006400347468003574680036746800206D75
:10076000656C6F64793A004E6F7465733A20446F1C
:10077000202D20612C205265202D20732C204D69C6
:10078000202D20642C204661202D20662C00536FE4
:100790006C202D20672C204C61202D20682C2053AC
:1007A00069202D206A2C20446F202D206B2C205096
:1007B00061757365202D2053706163652C2074680A
:1007C0006520656E64202D20456E74657200447549
:1007D000726174696F6E733A2031202D20312C20A4
:1007E00032202D20312F322C2033202D20312F3458
:1007F0002C2034202D20312F380057726F6E672047
:10080000666F726D6174210078006B005F005A00A2
:10081000500047003F003C000000E803F401FA00EC
:080820007D0000010203040544
:00000001FF
